{
  "contractName": "Election",
  "abi": [
    {
      "inputs": [],
      "payable": false,
      "stateMutability": "nonpayable",
      "type": "constructor"
    },
    {
      "constant": false,
      "inputs": [
        {
          "internalType": "string",
          "name": "_name",
          "type": "string"
        }
      ],
      "name": "addCandidate",
      "outputs": [],
      "payable": false,
      "stateMutability": "nonpayable",
      "type": "function"
    },
    {
      "constant": true,
      "inputs": [
        {
          "internalType": "uint256",
          "name": "_id",
          "type": "uint256"
        }
      ],
      "name": "getCandidate",
      "outputs": [
        {
          "internalType": "uint256",
          "name": "",
          "type": "uint256"
        },
        {
          "internalType": "string",
          "name": "",
          "type": "string"
        },
        {
          "internalType": "uint256",
          "name": "",
          "type": "uint256"
        }
      ],
      "payable": false,
      "stateMutability": "view",
      "type": "function"
    },
    {
      "constant": false,
      "inputs": [
        {
          "internalType": "uint256",
          "name": "_id",
          "type": "uint256"
        }
      ],
      "name": "destroyCandidate",
      "outputs": [],
      "payable": false,
      "stateMutability": "nonpayable",
      "type": "function"
    },
    {
      "constant": true,
      "inputs": [],
      "name": "getCandidateCount",
      "outputs": [
        {
          "internalType": "uint256",
          "name": "",
          "type": "uint256"
        }
      ],
      "payable": false,
      "stateMutability": "view",
      "type": "function"
    },
    {
      "constant": true,
      "inputs": [],
      "name": "getTotVotes",
      "outputs": [
        {
          "internalType": "uint256",
          "name": "",
          "type": "uint256"
        }
      ],
      "payable": false,
      "stateMutability": "view",
      "type": "function"
    },
    {
      "constant": false,
      "inputs": [
        {
          "internalType": "uint256",
          "name": "_id",
          "type": "uint256"
        }
      ],
      "name": "voting",
      "outputs": [],
      "payable": false,
      "stateMutability": "nonpayable",
      "type": "function"
    }
  ],
  "bytecode": "0x608060405234801561001057600080fd5b5033600260006101000a81548173ffffffffffffffffffffffffffffffffffffffff021916908373ffffffffffffffffffffffffffffffffffffffff160217905550600060048190555060006005819055506107c7806100716000396000f3fe608060405234801561001057600080fd5b50600436106100625760003560e01c8063239117da1461006757806330a563471461008557806335b8e820146100a3578063462e91ec14610158578063788e5f3b14610213578063fd4a77f114610241575b600080fd5b61006f61026f565b6040518082815260200191505060405180910390f35b61008d610279565b6040518082815260200191505060405180910390f35b6100cf600480360360208110156100b957600080fd5b8101908080359060200190929190505050610283565b6040518084815260200180602001838152602001828103825284818151815260200191508051906020019080838360005b8381101561011b578082015181840152602081019050610100565b50505050905090810190601f1680156101485780820380516001836020036101000a031916815260200191505b5094505050505060405180910390f35b6102116004803603602081101561016e57600080fd5b810190808035906020019064010000000081111561018b57600080fd5b82018360208201111561019d57600080fd5b803590602001918460018302840111640100000000831117156101bf57600080fd5b91908080601f016020809104026020016040519081016040528093929190818152602001838380828437600081840152601f19601f820116905080830192505050505050509192919290505050610376565b005b61023f6004803603602081101561022957600080fd5b81019080803590602001909291905050506104b5565b005b61026d6004803603602081101561025757600080fd5b81019080803590602001909291905050506105b1565b005b6000600554905090565b6000600454905090565b6000606060006001600085815260200190815260200160002060000154600160008681526020019081526020016000206001016001600087815260200190815260200160002060020154818054600181600116156101000203166002900480601f0160208091040260200160405190810160405280929190818152602001828054600181600116156101000203166002900480156103625780601f1061033757610100808354040283529160200191610362565b820191906000526020600020905b81548152906001019060200180831161034557829003601f168201915b505050505091509250925092509193909250565b600260009054906101000a900473ffffffffffffffffffffffffffffffffffffffff1673ffffffffffffffffffffffffffffffffffffffff163373ffffffffffffffffffffffffffffffffffffffff1614610439576040517f08c379a00000000000000000000000000000000000000000000000000000000081526004018080602001828103825260168152602001807f596f7520617265206e6f7420746865206f6e776572210000000000000000000081525060200191505060405180910390fd5b6040518060600160405280600454815260200182815260200160008152506001600060045481526020019081526020016000206000820151816000015560208201518160010190805190602001906104929291906106a5565b506040820151816002015590505060046000815480929190600101919050555050565b600260009054906101000a900473ffffffffffffffffffffffffffffffffffffffff1673ffffffffffffffffffffffffffffffffffffffff163373ffffffffffffffffffffffffffffffffffffffff1614610578576040517f08c379a00000000000000000000000000000000000000000000000000000000081526004018080602001828103825260168152602001807f596f7520617265206e6f7420746865206f6e776572210000000000000000000081525060200191505060405180910390fd5b600160008281526020019081526020016000206000808201600090556001820160006105a49190610725565b6002820160009055505050565b600015156000803373ffffffffffffffffffffffffffffffffffffffff1673ffffffffffffffffffffffffffffffffffffffff16815260200190815260200160002060000160149054906101000a900460ff1615151461061057600080fd5b600160008281526020019081526020016000206002016000815480929190600101919050555060056000815480929190600101919050555060016000803373ffffffffffffffffffffffffffffffffffffffff1673ffffffffffffffffffffffffffffffffffffffff16815260200190815260200160002060000160146101000a81548160ff02191690831515021790555050565b828054600181600116156101000203166002900490600052602060002090601f016020900481019282601f106106e657805160ff1916838001178555610714565b82800160010185558215610714579182015b828111156107135782518255916020019190600101906106f8565b5b509050610721919061076d565b5090565b50805460018160011615610100020316600290046000825580601f1061074b575061076a565b601f016020900490600052602060002090810190610769919061076d565b5b50565b61078f91905b8082111561078b576000816000905550600101610773565b5090565b9056fea265627a7a72315820990eda11e0dd2ffab1970e6df125549dbc610f223c1d69d0ba85837ebff0be0664736f6c63430005100032",
  "source": "pragma solidity ^0.5.16;\r\n\r\ncontract Election\r\n{\r\n    mapping(address => User) user;\r\n    mapping(uint => Candidate) candidate;\r\n    address ownerAddress;\r\n    address userAddress;\r\n    uint candidateCount;\r\n    uint totVotes;\r\n\r\n\r\n    struct Candidate\r\n    {\r\n        uint _id;\r\n        string _name;\r\n        uint _count;\r\n    }\r\n\r\n    struct User\r\n    {\r\n        address _address;\r\n        bool _check;\r\n    }\r\n\r\n    constructor() public\r\n    {\r\n        ownerAddress = msg.sender;\r\n        candidateCount=0;\r\n        totVotes = 0;\r\n    }\r\n\r\n    modifier isowner()\r\n    {\r\n        require(msg.sender==ownerAddress, \"You are not the onwer!\");\r\n        _;\r\n    }\r\n\r\n    modifier isvoted()\r\n    {\r\n        require(user[msg.sender]._check==false);\r\n        _;\r\n    }\r\n\r\n    function addCandidate(string memory _name) isowner public\r\n    {\r\n        candidate[candidateCount] = Candidate(candidateCount,_name,0);\r\n        candidateCount++;\r\n    }\r\n\r\n    function getCandidate(uint _id) public view returns(uint,string memory, uint)\r\n    {\r\n        return (candidate[_id]._id, candidate[_id]._name, candidate[_id]._count);\r\n    }\r\n\r\n    function destroyCandidate(uint _id) isowner public\r\n    {\r\n        delete candidate[_id];\r\n    }\r\n\r\n    function getCandidateCount() public view returns(uint)\r\n    {\r\n        return candidateCount;\r\n    }\r\n\r\n    function getTotVotes() public view returns(uint)\r\n    {\r\n        return totVotes;\r\n    }\r\n\r\n    function voting(uint _id) isvoted public\r\n    {\r\n        candidate[_id]._count++;\r\n        totVotes++;\r\n        user[msg.sender]._check = true;\r\n    }\r\n}",
  "sourcePath": "D:/git/Smart Contract Projects/Election/contracts/Election.sol",
  "compiler": {
    "name": "solc",
    "version": "0.5.16+commit.9c3226ce.Emscripten.clang"
  },
  "schemaVersion": "3.3.1",
  "updatedAt": "2020-11-09T13:46:55.475Z",
  "networkType": "ethereum",
  "devdoc": {
    "methods": {}
  },
  "userdoc": {
    "methods": {}
  }
}